{
  "_format": "hh-sol-artifact-1",
  "contractName": "Voting",
  "sourceName": "contracts/Voting.sol",
  "abi": [
    {
      "inputs": [
        {
          "internalType": "address",
          "name": "_verifier",
          "type": "address"
        }
      ],
      "stateMutability": "nonpayable",
      "type": "constructor"
    },
    {
      "inputs": [
        {
          "internalType": "string",
          "name": "name",
          "type": "string"
        }
      ],
      "name": "addCandidate",
      "outputs": [],
      "stateMutability": "nonpayable",
      "type": "function"
    },
    {
      "inputs": [
        {
          "internalType": "uint256",
          "name": "",
          "type": "uint256"
        }
      ],
      "name": "candidates",
      "outputs": [
        {
          "internalType": "string",
          "name": "",
          "type": "string"
        }
      ],
      "stateMutability": "view",
      "type": "function"
    },
    {
      "inputs": [],
      "name": "electionStarted",
      "outputs": [
        {
          "internalType": "bool",
          "name": "",
          "type": "bool"
        }
      ],
      "stateMutability": "view",
      "type": "function"
    },
    {
      "inputs": [],
      "name": "endElection",
      "outputs": [],
      "stateMutability": "nonpayable",
      "type": "function"
    },
    {
      "inputs": [
        {
          "internalType": "uint256",
          "name": "index",
          "type": "uint256"
        }
      ],
      "name": "getCandidate",
      "outputs": [
        {
          "internalType": "string",
          "name": "",
          "type": "string"
        }
      ],
      "stateMutability": "view",
      "type": "function"
    },
    {
      "inputs": [],
      "name": "getCandidateCount",
      "outputs": [
        {
          "internalType": "uint256",
          "name": "",
          "type": "uint256"
        }
      ],
      "stateMutability": "view",
      "type": "function"
    },
    {
      "inputs": [
        {
          "internalType": "uint256",
          "name": "index",
          "type": "uint256"
        }
      ],
      "name": "getVotes",
      "outputs": [
        {
          "internalType": "uint256",
          "name": "",
          "type": "uint256"
        }
      ],
      "stateMutability": "view",
      "type": "function"
    },
    {
      "inputs": [
        {
          "internalType": "address",
          "name": "",
          "type": "address"
        }
      ],
      "name": "hasVoted",
      "outputs": [
        {
          "internalType": "bool",
          "name": "",
          "type": "bool"
        }
      ],
      "stateMutability": "view",
      "type": "function"
    },
    {
      "inputs": [],
      "name": "owner",
      "outputs": [
        {
          "internalType": "address",
          "name": "",
          "type": "address"
        }
      ],
      "stateMutability": "view",
      "type": "function"
    },
    {
      "inputs": [
        {
          "internalType": "uint256",
          "name": "index",
          "type": "uint256"
        }
      ],
      "name": "removeCandidate",
      "outputs": [],
      "stateMutability": "nonpayable",
      "type": "function"
    },
    {
      "inputs": [],
      "name": "startElection",
      "outputs": [],
      "stateMutability": "nonpayable",
      "type": "function"
    },
    {
      "inputs": [],
      "name": "verifier",
      "outputs": [
        {
          "internalType": "contract HonkVerifier",
          "name": "",
          "type": "address"
        }
      ],
      "stateMutability": "view",
      "type": "function"
    },
    {
      "inputs": [
        {
          "internalType": "uint256",
          "name": "index",
          "type": "uint256"
        }
      ],
      "name": "vote",
      "outputs": [],
      "stateMutability": "nonpayable",
      "type": "function"
    },
    {
      "inputs": [
        {
          "internalType": "uint256",
          "name": "index",
          "type": "uint256"
        },
        {
          "internalType": "bytes",
          "name": "proof",
          "type": "bytes"
        },
        {
          "internalType": "uint256[]",
          "name": "publicInputs",
          "type": "uint256[]"
        }
      ],
      "name": "voteWithProof",
      "outputs": [],
      "stateMutability": "nonpayable",
      "type": "function"
    },
    {
      "inputs": [
        {
          "internalType": "uint256",
          "name": "",
          "type": "uint256"
        }
      ],
      "name": "votes",
      "outputs": [
        {
          "internalType": "uint256",
          "name": "",
          "type": "uint256"
        }
      ],
      "stateMutability": "view",
      "type": "function"
    }
  ],
  "bytecode": "0x608060405234801561001057600080fd5b506040516114e03803806114e083398101604081905261002f916101c1565b600580546001600160a01b0383166001600160a01b03199182161782556000805490911633178155600180548082018255915260408051808201909152918252642730b6b0b760d91b60208301526000805160206114c083398151915201906100989082610290565b50600180548082018255600091909152604080518082019091526006815265416b7368617960d01b60208201526000805160206114c0833981519152909101906100e29082610290565b5060018054808201825560009190915260408051808201909152600681526541646974796160d01b60208201526000805160206114c08339815191529091019061012c9082610290565b506001600260405161014990642730b6b0b760d91b815260050190565b90815260408051918290036020018220805493151560ff1994851617905565416b7368617960d01b825260026006808401829052825193849003602690810185208054871660019081179091556541646974796160d01b8652918501929092529151928390030190912080549092161790555061034e565b6000602082840312156101d357600080fd5b81516001600160a01b03811681146101ea57600080fd5b9392505050565b634e487b7160e01b600052604160045260246000fd5b600181811c9082168061021b57607f821691505b60208210810361023b57634e487b7160e01b600052602260045260246000fd5b50919050565b601f82111561028b57806000526020600020601f840160051c810160208510156102685750805b601f840160051c820191505b818110156102885760008155600101610274565b50505b505050565b81516001600160401b038111156102a9576102a96101f1565b6102bd816102b78454610207565b84610241565b6020601f8211600181146102f157600083156102d95750848201515b600019600385901b1c1916600184901b178455610288565b600084815260208120601f198516915b828110156103215787850151825560209485019460019092019101610301565b508482101561033f5786840151600019600387901b60f8161c191681555b50505050600190811b01905550565b6111638061035d6000396000f3fe608060405234801561001057600080fd5b50600436106100d55760003560e01c806335b8e8201161008757806335b8e820146101aa578063462e91ec146101bd57806359f78468146101d05780635df81330146101d857806362d73eb8146101f85780638da5cb5b14610200578063d5346da114610213578063ff9810991461022757600080fd5b80630121b93f146100da57806309e9d7e2146100ef57806309eef43e146101025780632b7ac3f31461013a5780632e04b00c1461016557806330a56347146101785780633477ee2e1461018a575b600080fd5b6100ed6100e8366004610a6d565b61023a565b005b6100ed6100fd366004610a6d565b6102f9565b610125610110366004610a86565b60036020526000908152604090205460ff1681565b60405190151581526020015b60405180910390f35b60055461014d906001600160a01b031681565b6040516001600160a01b039091168152602001610131565b6100ed610173366004610b01565b6104e3565b6001545b604051908152602001610131565b61019d610198366004610a6d565b6106e5565b6040516101319190610bd3565b61019d6101b8366004610a6d565b610791565b6100ed6101cb366004610c1c565b610862565b6100ed610968565b61017c6101e6366004610a6d565b60046020526000908152604090205481565b6100ed6109a1565b60005461014d906001600160a01b031681565b60005461012590600160a01b900460ff1681565b61017c610235366004610a6d565b6109e0565b600054600160a01b900460ff1661026c5760405162461bcd60e51b815260040161026390610cd2565b60405180910390fd5b3360009081526003602052604090205460ff161561029c5760405162461bcd60e51b815260040161026390610d02565b60015481106102bd5760405162461bcd60e51b815260040161026390610d32565b60008181526004602052604081208054916102d783610d73565b9091555050336000908152600360205260409020805460ff1916600117905550565b6000546001600160a01b031633146103235760405162461bcd60e51b815260040161026390610d8c565b60015481106103645760405162461bcd60e51b815260206004820152600d60248201526c092dcecc2d8d2c840d2dcc8caf609b1b6044820152606401610263565b60006001828154811061037957610379610dce565b90600052602060002001805461038e90610de4565b80601f01602080910402602001604051908101604052809291908181526020018280546103ba90610de4565b80156104075780601f106103dc57610100808354040283529160200191610407565b820191906000526020600020905b8154815290600101906020018083116103ea57829003601f168201915b5050505050905060006002826040516104209190610e1e565b908152604051908190036020019020805491151560ff19909216919091179055815b600180546104509190610e3a565b8110156104af5760016104638282610e53565b8154811061047357610473610dce565b906000526020600020016001828154811061049057610490610dce565b9060005260206000200190816104a69190610eca565b50600101610442565b5060018054806104c1576104c1610fa0565b6001900381819060005260206000200160006104dd9190610a17565b90555050565b600054600160a01b900460ff1661050c5760405162461bcd60e51b815260040161026390610cd2565b3360009081526003602052604090205460ff161561053c5760405162461bcd60e51b815260040161026390610d02565b600154851061055d5760405162461bcd60e51b815260040161026390610d32565b6000816001600160401b0381111561057757610577610c06565b6040519080825280602002602001820160405280156105a0578160200160208202803683370190505b50905060005b828110156105ef578383828181106105c0576105c0610dce565b9050602002013560001b8282815181106105dc576105dc610dce565b60209081029190910101526001016105a6565b50600554604051633a94343960e21b81526001600160a01b039091169063ea50d0e49061062490889088908690600401610fb6565b602060405180830381865afa158015610641573d6000803e3d6000fd5b505050506040513d601f19601f820116820180604052508101906106659190611031565b6106a45760405162461bcd60e51b815260206004820152601060248201526f24b73b30b634b2102d2590383937b7b360811b6044820152606401610263565b60008681526004602052604081208054916106be83610d73565b9091555050336000908152600360205260409020805460ff19166001179055505050505050565b600181815481106106f557600080fd5b90600052602060002001600091509050805461071090610de4565b80601f016020809104026020016040519081016040528092919081815260200182805461073c90610de4565b80156107895780601f1061075e57610100808354040283529160200191610789565b820191906000526020600020905b81548152906001019060200180831161076c57829003601f168201915b505050505081565b60015460609082106107b55760405162461bcd60e51b815260040161026390611053565b600182815481106107c8576107c8610dce565b9060005260206000200180546107dd90610de4565b80601f016020809104026020016040519081016040528092919081815260200182805461080990610de4565b80156108565780601f1061082b57610100808354040283529160200191610856565b820191906000526020600020905b81548152906001019060200180831161083957829003601f168201915b50505050509050919050565b6000546001600160a01b0316331461088c5760405162461bcd60e51b815260040161026390610d8c565b60028160405161089c9190610e1e565b9081526040519081900360200190205460ff16156108f75760405162461bcd60e51b815260206004820152601860248201527743616e64696461746520616c72656164792065786973747360401b6044820152606401610263565b6001805480820182556000919091527fb10e2d527612073b26eecdfd717e6a320cf44b4afac2b0732d9fcbe2b7fa0cf6016109328282611084565b5060016002826040516109459190610e1e565b908152604051908190036020019020805491151560ff1990921691909117905550565b6000546001600160a01b031633146109925760405162461bcd60e51b815260040161026390610d8c565b6000805460ff60a01b19169055565b6000546001600160a01b031633146109cb5760405162461bcd60e51b815260040161026390610d8c565b6000805460ff60a01b1916600160a01b179055565b6001546000908210610a045760405162461bcd60e51b815260040161026390611053565b5060009081526004602052604090205490565b508054610a2390610de4565b6000825580601f10610a33575050565b601f016020900490600052602060002090810190610a519190610a54565b50565b5b80821115610a695760008155600101610a55565b5090565b600060208284031215610a7f57600080fd5b5035919050565b600060208284031215610a9857600080fd5b81356001600160a01b0381168114610aaf57600080fd5b9392505050565b60008083601f840112610ac857600080fd5b5081356001600160401b03811115610adf57600080fd5b6020830191508360208260051b8501011115610afa57600080fd5b9250929050565b600080600080600060608688031215610b1957600080fd5b8535945060208601356001600160401b03811115610b3657600080fd5b8601601f81018813610b4757600080fd5b80356001600160401b03811115610b5d57600080fd5b886020828401011115610b6f57600080fd5b6020919091019450925060408601356001600160401b03811115610b9257600080fd5b610b9e88828901610ab6565b969995985093965092949392505050565b60005b83811015610bca578181015183820152602001610bb2565b50506000910152565b6020815260008251806020840152610bf2816040850160208701610baf565b601f01601f19169190910160400192915050565b634e487b7160e01b600052604160045260246000fd5b600060208284031215610c2e57600080fd5b81356001600160401b03811115610c4457600080fd5b8201601f81018413610c5557600080fd5b80356001600160401b03811115610c6e57610c6e610c06565b604051601f8201601f19908116603f011681016001600160401b0381118282101715610c9c57610c9c610c06565b604052818152828201602001861015610cb457600080fd5b81602084016020830137600091810160200191909152949350505050565b602080825260169082015275456c656374696f6e206973206e6f742061637469766560501b604082015260600190565b602080825260169082015275165bdd481a185d9948185b1c9958591e481d9bdd195960521b604082015260600190565b602080825260119082015270496e76616c69642063616e64696461746560781b604082015260600190565b634e487b7160e01b600052601160045260246000fd5b600060018201610d8557610d85610d5d565b5060010190565b60208082526022908201527f4f6e6c79206f776e65722063616e20706572666f726d2074686973206163746960408201526137b760f11b606082015260800190565b634e487b7160e01b600052603260045260246000fd5b600181811c90821680610df857607f821691505b602082108103610e1857634e487b7160e01b600052602260045260246000fd5b50919050565b60008251610e30818460208701610baf565b9190910192915050565b81810381811115610e4d57610e4d610d5d565b92915050565b80820180821115610e4d57610e4d610d5d565b601f821115610eb057806000526020600020601f840160051c81016020851015610e8d5750805b601f840160051c820191505b81811015610ead5760008155600101610e99565b50505b505050565b600019600383901b1c191660019190911b1790565b818103610ed5575050565b610edf8254610de4565b6001600160401b03811115610ef657610ef6610c06565b610f0a81610f048454610de4565b84610e66565b6000601f821160018114610f385760008315610f265750848201545b610f308482610eb5565b855550610ead565b600085815260209020601f19841690600086815260209020845b83811015610f725782860154825560019586019590910190602001610f52565b5085831015610f905781850154600019600388901b60f8161c191681555b5050505050600190811b01905550565b634e487b7160e01b600052603160045260246000fd5b60408152826040820152828460608301376000606084830101526000601f19601f8501168201606081016060848303016020850152808551808352608084019150602087019350600092505b808310156110255783518252602082019150602084019350600183019250611002565b50979650505050505050565b60006020828403121561104357600080fd5b81518015158114610aaf57600080fd5b602080825260179082015276092dcecc2d8d2c840c6c2dcc8d2c8c2e8ca40d2dcc8caf604b1b604082015260600190565b81516001600160401b0381111561109d5761109d610c06565b6110ab81610f048454610de4565b6020601f8211600181146110d05760008315610f26575084820151610f308482610eb5565b600084815260208120601f198516915b8281101561110057878501518255602094850194600190920191016110e0565b508482101561111e5786840151600019600387901b60f8161c191681555b50505050600190811b0190555056fea26469706673582212202c24cf4b11a4fe2803800071fb39ab214f872f3aee65a26567a341e8a675433564736f6c634300081c0033b10e2d527612073b26eecdfd717e6a320cf44b4afac2b0732d9fcbe2b7fa0cf6",
  "linkReferences": {},
  "deployedLinkReferences": {}
}